{
  "_format": "hh-sol-artifact-1",
  "contractName": "Docs",
  "sourceName": "contracts/Docs.sol",
  "abi": [
    {
      "anonymous": false,
      "inputs": [
        {
          "indexed": false,
          "internalType": "address",
          "name": "uploader",
          "type": "address"
        },
        {
          "indexed": false,
          "internalType": "string",
          "name": "title",
          "type": "string"
        },
        {
          "indexed": false,
          "internalType": "string",
          "name": "ipfsHash",
          "type": "string"
        },
        {
          "indexed": false,
          "internalType": "uint256",
          "name": "timestamp",
          "type": "uint256"
        },
        {
          "indexed": false,
          "internalType": "string",
          "name": "filetype",
          "type": "string"
        },
        {
          "indexed": false,
          "internalType": "uint256",
          "name": "filesize",
          "type": "uint256"
        }
      ],
      "name": "DocsUpload",
      "type": "event"
    },
    {
      "inputs": [
        {
          "internalType": "string",
          "name": "title",
          "type": "string"
        },
        {
          "internalType": "string",
          "name": "ipfsHash",
          "type": "string"
        },
        {
          "internalType": "string",
          "name": "filetype",
          "type": "string"
        },
        {
          "internalType": "uint256",
          "name": "filesize",
          "type": "uint256"
        }
      ],
      "name": "addDocToBlockchain",
      "outputs": [],
      "stateMutability": "nonpayable",
      "type": "function"
    },
    {
      "inputs": [],
      "name": "getAllDocs",
      "outputs": [
        {
          "components": [
            {
              "internalType": "address",
              "name": "uploader",
              "type": "address"
            },
            {
              "internalType": "string",
              "name": "title",
              "type": "string"
            },
            {
              "internalType": "string",
              "name": "ipfsHash",
              "type": "string"
            },
            {
              "internalType": "uint256",
              "name": "timestamp",
              "type": "uint256"
            },
            {
              "internalType": "string",
              "name": "filetype",
              "type": "string"
            },
            {
              "internalType": "uint256",
              "name": "filesize",
              "type": "uint256"
            }
          ],
          "internalType": "struct Docs.DocsStruct[]",
          "name": "",
          "type": "tuple[]"
        }
      ],
      "stateMutability": "view",
      "type": "function"
    },
    {
      "inputs": [],
      "name": "getDocsCount",
      "outputs": [
        {
          "internalType": "uint256",
          "name": "",
          "type": "uint256"
        }
      ],
      "stateMutability": "view",
      "type": "function"
    }
  ],
  "bytecode": "0x608060405234801561001057600080fd5b50610bfe806100206000396000f3fe608060405234801561001057600080fd5b50600436106100415760003560e01c80633a8e1aa4146100465780636516182b146100645780639e8cb6bd14610080575b600080fd5b61004e61009e565b60405161005b9190610797565b60405180910390f35b61007e6004803603810190610079919061092e565b61031d565b005b61008861049f565b60405161009591906109f8565b60405180910390f35b60606001805480602002602001604051908101604052809291908181526020016000905b8282101561031457838290600052602060002090600602016040518060c00160405290816000820160009054906101000a900473ffffffffffffffffffffffffffffffffffffffff1673ffffffffffffffffffffffffffffffffffffffff1673ffffffffffffffffffffffffffffffffffffffff16815260200160018201805461014b90610a42565b80601f016020809104026020016040519081016040528092919081815260200182805461017790610a42565b80156101c45780601f10610199576101008083540402835291602001916101c4565b820191906000526020600020905b8154815290600101906020018083116101a757829003601f168201915b505050505081526020016002820180546101dd90610a42565b80601f016020809104026020016040519081016040528092919081815260200182805461020990610a42565b80156102565780601f1061022b57610100808354040283529160200191610256565b820191906000526020600020905b81548152906001019060200180831161023957829003601f168201915b505050505081526020016003820154815260200160048201805461027990610a42565b80601f01602080910402602001604051908101604052809291908181526020018280546102a590610a42565b80156102f25780601f106102c7576101008083540402835291602001916102f2565b820191906000526020600020905b8154815290600101906020018083116102d557829003601f168201915b50505050508152602001600582015481525050815260200190600101906100c2565b50505050905090565b600160008082825461032f9190610aa3565b9250508190555060016040518060c001604052803373ffffffffffffffffffffffffffffffffffffffff16815260200186815260200185815260200142815260200184815260200183815250908060018154018082558091505060019003906000526020600020906006020160009091909190915060008201518160000160006101000a81548173ffffffffffffffffffffffffffffffffffffffff021916908373ffffffffffffffffffffffffffffffffffffffff16021790555060208201518160010190805190602001906104079291906104a8565b5060408201518160020190805190602001906104249291906104a8565b5060608201518160030155608082015181600401908051906020019061044b9291906104a8565b5060a0820151816005015550507f4c660f09909c6bdea441fecf3fa75e534fd7ab791057912e5f8c7bb169e403f733858542868660405161049196959493929190610b52565b60405180910390a150505050565b60008054905090565b8280546104b490610a42565b90600052602060002090601f0160209004810192826104d6576000855561051d565b82601f106104ef57805160ff191683800117855561051d565b8280016001018555821561051d579182015b8281111561051c578251825591602001919060010190610501565b5b50905061052a919061052e565b5090565b5b8082111561054757600081600090555060010161052f565b5090565b600081519050919050565b600082825260208201905092915050565b6000819050602082019050919050565b600073ffffffffffffffffffffffffffffffffffffffff82169050919050565b60006105a282610577565b9050919050565b6105b281610597565b82525050565b600081519050919050565b600082825260208201905092915050565b60005b838110156105f25780820151818401526020810190506105d7565b83811115610601576000848401525b50505050565b6000601f19601f8301169050919050565b6000610623826105b8565b61062d81856105c3565b935061063d8185602086016105d4565b61064681610607565b840191505092915050565b6000819050919050565b61066481610651565b82525050565b600060c08301600083015161068260008601826105a9565b506020830151848203602086015261069a8282610618565b915050604083015184820360408601526106b48282610618565b91505060608301516106c9606086018261065b565b50608083015184820360808601526106e18282610618565b91505060a08301516106f660a086018261065b565b508091505092915050565b600061070d838361066a565b905092915050565b6000602082019050919050565b600061072d8261054b565b6107378185610556565b93508360208202850161074985610567565b8060005b8581101561078557848403895281516107668582610701565b945061077183610715565b925060208a0199505060018101905061074d565b50829750879550505050505092915050565b600060208201905081810360008301526107b18184610722565b905092915050565b6000604051905090565b600080fd5b600080fd5b600080fd5b600080fd5b7f4e487b7100000000000000000000000000000000000000000000000000000000600052604160045260246000fd5b61080f82610607565b810181811067ffffffffffffffff8211171561082e5761082d6107d7565b5b80604052505050565b60006108416107b9565b905061084d8282610806565b919050565b600067ffffffffffffffff82111561086d5761086c6107d7565b5b61087682610607565b9050602081019050919050565b82818337600083830152505050565b60006108a56108a084610852565b610837565b9050828152602081018484840111156108c1576108c06107d2565b5b6108cc848285610883565b509392505050565b600082601f8301126108e9576108e86107cd565b5b81356108f9848260208601610892565b91505092915050565b61090b81610651565b811461091657600080fd5b50565b60008135905061092881610902565b92915050565b60008060008060808587031215610948576109476107c3565b5b600085013567ffffffffffffffff811115610966576109656107c8565b5b610972878288016108d4565b945050602085013567ffffffffffffffff811115610993576109926107c8565b5b61099f878288016108d4565b935050604085013567ffffffffffffffff8111156109c0576109bf6107c8565b5b6109cc878288016108d4565b92505060606109dd87828801610919565b91505092959194509250565b6109f281610651565b82525050565b6000602082019050610a0d60008301846109e9565b92915050565b7f4e487b7100000000000000000000000000000000000000000000000000000000600052602260045260246000fd5b60006002820490506001821680610a5a57607f821691505b60208210811415610a6e57610a6d610a13565b5b50919050565b7f4e487b7100000000000000000000000000000000000000000000000000000000600052601160045260246000fd5b6000610aae82610651565b9150610ab983610651565b9250827fffffffffffffffffffffffffffffffffffffffffffffffffffffffffffffffff03821115610aee57610aed610a74565b5b828201905092915050565b610b0281610597565b82525050565b600082825260208201905092915050565b6000610b24826105b8565b610b2e8185610b08565b9350610b3e8185602086016105d4565b610b4781610607565b840191505092915050565b600060c082019050610b676000830189610af9565b8181036020830152610b798188610b19565b90508181036040830152610b8d8187610b19565b9050610b9c60608301866109e9565b8181036080830152610bae8185610b19565b9050610bbd60a08301846109e9565b97965050505050505056fea264697066735822122051149c1e85e1f825082484601010cf05f02ad2fa484a986c9982e25d5c88876f64736f6c63430008090033",
  "linkReferences": {},
  "deployedLinkReferences": {}
}